:1000000010C028C0EEC026C025C024C023C0C8C070
:100010005BC020C01FC01EC01DC01CC01BC01AC0BA
:1000200019C011241FBECFEDCDBF10E0A0E6B0E097
:10003000E0E8F2E002C005900D92A437B107D9F7CD
:1000400020E0A4E7B0E001C01D92AA37B207E1F7B3
:10005000FDD014C1D5CF80917500811107C016BEA7
:1000600086B78CBF81E080937500089586B7883D80
:1000700018F486B7885D86BF86B7823E40F08FEF62
:1000800086BF80EA9FE09BBD8ABD1092750086B74F
:100090008CBF089581EA80BF83B7816083BFBA9A1D
:1000A000D79A08958FEF9FE79BBD8ABD80E090E8C7
:1000B00099BD88BD8FB583608FBD8EB589618EBDBA
:1000C0008CB185608CB908951F920F920FB60F9274
:1000D00011242F938F939F93AF93BF9380916000D0
:1000E00090916100A0916200B09163000196A11D02
:1000F000B11D8093600090936100A0936200B09363
:1001000063008091600090916100A0916200B091C5
:100110006300803C984AA105B105A0F4809160007D
:1001200090916100A0916200B09163008054974566
:10013000AF4FBF4F8093600090936100A093620027
:10014000B09363008091600090916100A091620083
:10015000B091630081349A4FA140B105A0F0809125
:10016000600090916100A0916200B0916300805C9A
:10017000984AA109B1098093600090936100A0930F
:100180006200B093630081E080937900BF91AF91EA
:100190009F918F912F910F900FBE0F901F901895E8
:1001A0001F920F920FB60F9211248F9380917600B9
:1001B000882319F081E0809379008F910F900FBE12
:1001C0000F901F901895389A86B1816886B91C9A4D
:1001D000D09A08958BB780618BBF82B38C6082BB4D
:1001E00008951F920F920FB60F9211242F938F93A1
:1001F0009F93EF93FF93E9B3EC70E695E6958091BA
:100200007400880F880FE82BEF70E09374008091E2
:10021000770090917800F0E0EC59FF4F2081820F39
:10022000911D27FD9A959093780080937700FF9118
:10023000EF919F918F912F910F900FBE0F901F9074
:10024000189585B7806A85BF019A089523DF2ADF54
:10025000BADFC0DFF6DF7894C0E0DDE70098D89A17
:10026000369A3699FECFD898009ADBBDCABD109257
:100270007800109277008895EEDEF0CFF894FFCFEB
:100280005046000000FF01000000000000000000D8
:04029000000000006A
:00000001FF
