S01700004669726D776172655F426F617264312E7372656358
S113000010C02AC048C228C027C026C011C224C0BC
S113001023C022C021C020C01FC01EC01DC01CC0E0
S11300201BC011241FBECFE5D1E0DEBFCDBF10E061
S1130030A0E6B0E0E6E0F6E002C005900D92A0383C
S1130040B107D9F720E0A0E8B0E001C01D92A838BC
S1130050B207E1F75AD2D5C2D3CF8F929F92AF9213
S1130060BF92CF92DF92EF92FF9260916200709103
S113007063008091640090916500B09061002CE36E
S113008030E040E050E087D20F2EF0EDCF2EF2E0CA
S1130090DF2EE12CF12CF02DCA01B901A701960144
S11300A07AD22B2D30E040E050E049D2A7019601EE
S11300B072D22CBF609162007091630080916400E1
S11300C09091650080906000912CA12CB12C0F2E92
S11300D0F0E1CF2EFEE0DF2EE12CF12CF02DA70174
S11300E0960159D29B01AC01C501B40128D2A701E4
S11300F0960151D226BFFF90EF90DF90CF90BF9032
S1130100AF909F908F90089585B18D3A40F489EB1C
S113011090E090938700809386002BD0089580917F
S11301208000909181004091620050916300609141
S1130130640070916500880F991F82959295907F55
S11301409827807F9827AA2797FDA095BA2F840F18
S1130150951FA61FB71F8093620090936300A0931E
S11301606400B0936500109281001092800075DFE6
S1130170089585B1873960F410928100109280004F
S113018088E991E09093870080938600D1D0089508
S113019085B18D3A60F0109281001092800084E85D
S11301A090E09093870080938600AEDF089580915D
S11301B08200811102C051DF05C0809183008F5FEE
S11301C08093830060916200709163008091640069
S11301D090916500E0918300E770F0E0E959FF4FEA
S11301E0208130E040E050E0D6D1672B682B692BAA
S11301F041F481E0809382008091660080938400C2
S113020016BE6091620070916300809164009091C9
S11302106500E0918300F0E03196E770FF27E9592B
S1130220FF4F208130E040E050E0B5D1672B682BD0
S1130230692B49F481E08093820080916600809369
S113024084008FEF86BF609162007091630080919B
S1130250640090916500E0918300F0E03296E770CD
S1130260FF27E959FF4F208130E040E050E093D16F
S1130270672B682B692B41F481E080938200809185
S11302806600809384001CBE6091620070916300DC
S11302908091640090916500E0918300F0E03396D2
S11302A0E770FF27E959FF4F208130E040E050E03C
S11302B072D1672B682B692B49F481E0809382000B
S11302C080916600809384008FEF8CBF80918400BE
S11302D0882321F081508093840002C01092820010
S11302E0809180009091810006973CF48091800079
S11302F0909181008B3F9F4FD4F480918000909126
S1130300810065E070E034D180916600680F1AF4D2
S11303101092660008C06F311CF46093660003C03D
S11303208EE18093660010928100109280000895FF
S113033085B1813840F480EC91E0909387008093FC
S113034086001ED0089585B1873940F089EB90E08E
S113035090938700809386000CDF089516BE8091E9
S113036060008CBF8091800090918100909160002A
S1130370890F80936000109281001092800008958C
S113038085B18B3640F488EE91E09093870080939A
S113039086001ED0089585B1813840F088E991E047
S11303A09093870080938600C3DF08958091610055
S11303B086BF1CBE80918000909181009091610065
S11303C0890F80936100109281001092800008953B
S11303D0109281001092800085B18B3640F080EC41
S11303E091E09093870080938600CADF089586B7D2
S11303F0865F86BF8CB7865F8CBF089581E080BF1F
S113040080B7806880BF80B7806280BF83B7816017
S113041083BFBA9AD79A089580E09DE79BBD8ABDB1
S113042088E08EBD8EB581608EBD82E08CB9089562
S11304301F920F920FB60F9211248F939F93AF9335
S1130440BF938091620090916300A0916400B09189
S113045065000196A11DB11D809362009093630015
S1130460A0936400B0936500BF91AF919F918F9169
S11304700F900FBE0F901F901895389A379A309AA4
S11304801C9AD09AD89808958BB780618BBF82B399
S11304908C6082BB08951F920F920FB60F921124A5
S11304A02F938F939F93EF93FF93E9B3EC70E695AB
S11304B0E69580918500880F880FE82BEF70E09314
S11304C085008091800090918100F0E0E159FF4F18
S11304D02081820F911D27FD9A959093810080932E
S11304E08000FF91EF919F918F912F910F900FBEFC
S11304F00F901F90189585B7806885BF85B7806277
S113050085BF85B785BF019A089584E890E09093EC
S113051087008093860072DF7FDFAFDFB5DFEBDF1C
S113052078940098D89A369A3699FECFD898009A3B
S1130530E0918600F091870009958895F2CFFF2716
S1130540EE27BB27AA2760FF04C0A20FB31FE41F36
S1130550F51F220F331F441F551F969587957795D6
S1130560679589F70097760771F7CF01BD01089564
S113057097FB072E16F4009406D077FD08D02DD0F3
S113058007FC05D03EF4909581959F4F0895709592
S113059061957F4F0895A1E21A2EAA1BBB1BFD0192
S11305A00DC0AA1FBB1FEE1FFF1FA217B307E4074E
S11305B0F50720F0A21BB30BE40BF50B661F771FA6
S11305C0881F991F1A9469F7609570958095909586
S11305D09B01AC01BD01CF010895AA1BBB1B51E1D6
S11305E007C0AA1FBB1FA617B70710F0A61BB70B9F
S11305F0881F991F5A95A9F780959095BC01CD0144
S10906000895F894FFCFF9
S1130606F0F050460000013543C52B9D6153B300FD
S1130616FF0100010000FFFF0000010001FF0000D0
S9030000FC
