S01C0000416C61726D5F436C6F636B5F4669726D776172652E7372656334
S113000010C028C0C1C226C025C024C023C09BC2C2
S11300102EC220C01FC01EC01DC01CC01BC01AC0E1
S113002019C011241FBECFEDCDBF10E0A0E6B0E093
S1130030E2EEF7E002C005900D92AA37B107D9F7B6
S113004020E0AAE7B0E001C01D92A338B207E1F7AF
S1130050D0D2C5C3D5CF8F929F92AF92BF92CF9289
S1130060DF92EF92FF92609165007091660080913B
S1130070670090916800B090640020E13EE040E0A9
S113008050E013D3CA01B9013CE0C32ED12CE12CBA
S1130090F12CA701960109D32B2D30E040E050E06C
S11300A028D3B901CA01A7019601FFD22115310550
S11300B04105510511F4209164002CBF6091650045
S11300C07091660080916700909168008090630051
S11300D0912CA12CB12C20E1C22E2EE0D22EE12CA9
S11300E0F12CA7019601E1D29B01AC01C501B40139
S11300F000D3B901CA01A7019601D7D226BFFF9048
S1130100EF90DF90CF90BF90AF909F908F90089525
S11301100F931F9385B18E3048F487ED91E090934F
S11301206200809361001F910F9141C185B18134B8
S113013048F087ED90E090936200809361001F91F6
S11301400F9135C080917E00883038F08091640032
S11301508CBF8091630086BF27C080917E0087306A
S113016019F41CBE16BE20C076DF00916500109104
S11301706600209167003091680080918000909122
S113018081006CE370E080D2AA2797FDA095BA2F76
S1130190800F911FA21FB31F809365009093660088
S11301A0A0936700B09368001F910F91089585B1E3
S11301B0813458F480E090E899BD88BD88E890E0E7
S11301C09093620080936100A3CF85B1813858F089
S11301D080E090E899BD88BD88E991E09093620041
S11301E080936100A5C080917E00863040F08091AC
S11301F0640086958CBF80916300869509C08091C8
S11302007E00853039F4809164008CBF8091630056
S113021086BF089580917D00882319F08CB781589A
S11302208CBF80917C00882319F086B7815886BFE3
S113023080917D00811105C080917C00811101C0F5
S11302400ADF10927D0010927C0080917B00811166
S113025068C060916500709166008091670090911C
S1130260680026E030E040E050E01FD2672B682BA6
S1130270692B41F491E090937B0080916000892781
S113028080936000609165007091660080916700C2
S1130290909168002AE030E040E050E006D2672BFD
S11302A0682B692B29F480917B008F5F80937B00FE
S11302B08091650090916600A0916700B0916800FC
S11302C08F709927AA27BB27892B8A2B8B2B59F44C
S11302D080917B008F5F80937B008091600091E030
S11302E089278093600080917B00823040F088E809
S11302F093E199BD88BD81E080937C000FC0882381
S1130300B1F088E893E199BD88BD809160008823AD
S113031021F081E080937C00089581E080937D004A
S1130320089510927B0080E090E899BD88BD0895FF
S113033085B1813838F487ED90E090936200809322
S1130340610035CF85B1883D38F088EE91E0909317
S11303506200809361003CC0809164008CBF16BE33
S1130360809180009091810020916400820F911D02
S11303708F3F910529F024F08FEF80936400089556
S1130380809180009091810020916400820F911DE2
S113039097FF03C010926400089520916400809137
S11303A0800090918100280F20936400089585B106
S11303B08E3038F088E991E0909362008093610078
S11303C0B7CF86B7865F86BF8CB7865F8CBF08952C
S11303D085B1883D38F488E991E090936200809378
S11303E06100A6CF1CBE8091630086BF809180000F
S11303F09091810020916300820F911D8F3F9105A0
S113040029F024F08FEF8093630008958091800099
S11304109091810020916300820F911D97FF03C08A
S11304201092630008952091630080918000909160
S11304308100280F20936300089581EA80BF83B769
S1130440816083BFBA9AD79A08958FEF9FE79BBDC7
S11304508ABD8FEF9FE399BD88BD8FB583608FBD43
S11304608EB589618EBD8CB185608CB908951F925B
S11304700F920FB60F9211242F938F939F93AF93E4
S1130480BF938091650090916600A0916700B09140
S113049068000196A11DB11D8093650090936600CC
S11304A0A0936700B0936800809165009091660006
S11304B0A0916700B0916800803C984AA105B105FD
S11304C0A0F48091650090916600A0916700B091BE
S11304D0680080549745AF4FBF4F80936500909359
S11304E06600A0936700B0936800809165009091C6
S11304F06600A0916700B091680081349A4FA140D2
S1130500B105A0F08091650090916600A09167000C
S1130510B0916800805C984AA109B1098093650094
S113052090936600A0936700B093680081E0809385
S11305308200BF91AF919F918F912F910F900FBE29
S11305400F901F9018951F920F920FB60F921124BF
S11305508F9380917E00882319F081E0809382003C
S11305608F910F900FBE0F901F901895389A86B1F7
S1130570816886B91C9AD09A08958BB780618BBF25
S113058082B38C6082BB08951F920F920FB60F92B4
S113059011242F938F939F93EF93FF93E9B3EC7000
S11305A0E695E69580917A00880F880FE82BEF7026
S11305B0E0937A008091800090918100F0E0E75907
S11305C0FF4F2081820F911D27FD9A959093810002
S11305D080938000FF91EF919F918F912F910F90C5
S11305E00FBE0F901F90189585B7806A85BF019A3A
S11305F0089523DF2ADFBADFC0DFF6DF78944AE00C
S1130600F42ECFEFDFE300E010E88091820088232E
S113061081F10098D89A369A3699FECF009A85B11E
S113062020917F0090E0821B910997FF03C0919570
S1130630819591090597A4F480917E0081110AC0E7
S11306408091610090916200875D904069F019BDCE
S113065008BD0AC080917E00815080937E0004C052
S1130660F0927E00D9BDC8BD85B180937F00109201
S1130670820010928100109280008895E0916100C0
S1130680F09162000995C1CF0024552704C0080EDB
S1130690591F880F991F009729F076956795B8F32D
S11306A07105B9F7802D952F0895A1E21A2EAA1B82
S11306B0BB1BFD010DC0AA1FBB1FEE1FFF1FA2170E
S11306C0B307E407F50720F0A21BB30BE40BF50B0B
S11306D0661F771F881F991F1A9469F76095709594
S11306E0809590959B01AC01BD01CF01089568945C
S11306F00013E894A0E0B0E0EFE7F3E01DC0EFEFF3
S1130700E7F959016A015E23550FEE08FE2C8701B3
S11307109B01AC019E23990F660B762FCB0131D040
S1130720CDB7DD27EAE01FC02F923F924F925F9230
S11307306F927F928F929F92AF92BF92CF92DF92ED
S1130740EF92FF920F931F93CF93DF93CDB7CA1B02
S1130750CDBFDD2709942A88398848885F846E8450
S11307607D848C849B84AA84B984C884DF80EE80D1
S1130770FD800C811B81AA81D981CE0FCDBFCA2FE8
S11307800895DF93CF939F92A0E49A2E0024D00182
S1130790E001F00116950795F794E794D794C79470
S11307A0B794A79448F41068A20FB31FC41FD51FB1
S11307B0E61FF71F081E191E220F331F441F551F63
S11307C0661F771F881F991F9A9421F79D01AE0118
S11307D0BF01C00111249F90CF91DF910895F89437
S10507E0FFCF45
S11307E2018800F0F05046000000FF010000000004
S10D07F200000000000000000000F9
S9030000FC
