:1000000010C02AC088C228C027C026C04EC224C043
:1000100023C022C021C020C01FC01EC01DC01CC0E4
:100020001BC011241FBECFE5D1E0DEBFCDBF10E065
:10003000A0E6B0E0E6E8F7E002C005900D92A03837
:10004000B107D9F720E0A0E8B0E001C01D92A938BF
:10005000B207E1F79AD295C3D3CF8F929F92AF9216
:10006000BF92CF92DF92EF92FF9260916300709106
:1000700064008091650090916600B090620020E17C
:100080003EE040E050E0C5D2CA01B9013CE0C32ED9
:10009000D12CE12CF12CA7019601BBD22B2D30E005
:1000A00040E050E0DAD2B901CA01A7019601B1D20D
:1000B000211531054105510511F4209162002CBF35
:1000C000609163007091640080916500909166007A
:1000D00080906100912CA12CB12C20E1C22E2EE049
:1000E000D22EE12CF12CA701960193D29B01AC01F9
:1000F000C501B401B2D2B901CA01A701960189D2E2
:1001000026BFFF90EF90DF90CF90BF90AF909F9071
:100110008F90089585B1873958F410928500109218
:10012000840080EA91E0909388008093870008C162
:1001300085B18D3A58F0109285001092840085E6C2
:1001400091E09093880080938700BFC080918300E6
:10015000811102C082DF05C0809182008F5F809391
:1001600082006091630070916400809165009091BD
:100170006600E0918200E770F0E0E958FF4F2081CF
:1001800030E040E050E045D2672B682B692B41F40A
:1001900081E080938300809160008093810016BE8F
:1001A0006091630070916400809165009091660099
:1001B000E0918200F0E03196E770FF27E958FF4FA9
:1001C000208130E040E050E024D2672B682B692B7F
:1001D00049F481E0809383008091600080938100E6
:1001E0008FEF86BF6091630070916400809165001D
:1001F00090916600E0918200F0E03296E770FF2770
:10020000E958FF4F208130E040E050E002D2672BF8
:10021000682B692B41F481E080938300809160001A
:10022000809381001CBE6091630070916400809196
:10023000650090916600E0918200F0E03396E770EF
:10024000FF27E958FF4F208130E040E050E0E1D146
:10025000672B682B692B49F481E0809383008091A0
:100260006000809381008FEF8CBF80918100882394
:1002700021F081508093810002C010928300809110
:1002800084009091850006973CF4809184009091C1
:1002900085008B3F9F4FC4F480918400909185002E
:1002A00065E070E0A3D180916000860F87FF03C0F6
:1002B0001092600005C08F310CF08EE180936000D9
:1002C000109285001092840008950F931F9385B1BA
:1002D0008D3A48F48AE890E09093880080938700F4
:1002E0001F910F9117CF009163001091640020912E
:1002F0006500309166008091840090918500609146
:1003000084007091850077FF03C071956195710934
:100310005CD1AA2797FDA095BA2F800F911FA21F2D
:10032000B31F8093630090936400A0936500B09323
:10033000660010928500109284001F910F918DCE5F
:1003400085B1813838F483EE91E0909388008093F2
:10035000870039C085B1873938F08AE890E09093FA
:10036000880080938700D6CE1CBE8091610086BF36
:10037000809184009091850020916100820F911DF1
:100380008F3F910529F024F08FEF8093610016C014
:10039000809184009091850020916100820F911DD1
:1003A00097FF03C01092610009C020916100809105
:1003B000840090918500280F2093610010928500A1
:1003C00010928400089585B18B3638F486E292E06D
:1003D000909388008093870039C085B1813838F0C8
:1003E00080EA91E09093880080938700A9CF809164
:1003F00062008CBF16BE8091840090918500209190
:100400006200820F911D8F3F910529F024F08FEF3C
:100410008093620016C080918400909185002091A5
:100420006200820F911D97FF03C01092620009C005
:10043000209162008091840090918500280F209384
:100440006200109285001092840008951092850039
:100450001092840085B18B3638F083EE91E0909352
:10046000880080938700AFCF86B7865F86BF8CB742
:10047000865F8CBF089581E080BF80B7806880BFB1
:1004800080B7806280BF83B7816083BFBA9AD79AF2
:1004900008958FEF9FE79BBD8ABD88E08EBD8EB526
:1004A00081608EBD82E08CB908951F920F920FB6C5
:1004B0000F9211248F939F93AF93BF93809163000A
:1004C00090916400A0916500B09166000196A11D15
:1004D000B11D8093630090936400A0936500B09376
:1004E000660081E080938600BF91AF919F918F91CC
:1004F0000F900FBE0F901F901895389A379A309A28
:100500001C9AD09AD89808958BB780618BBF82B31C
:100510008C6082BB08951F920F920FB60F92112428
:100520002F938F939F93EF93FF93E9B3EC70E6952E
:10053000E69580918000880F880FE82BEF70E0939C
:1005400080008091840090918500F0E0E959FF4F90
:100550002081820F911D27FD9A95909385008093AD
:100560008400FF91EF919F918F912F910F900FBE7B
:100570000F901F90189585B7806885BF85B78062FA
:1005800085BF85B785BF019A089585E691E0909370
:100590008800809387006FDF7CDFAFDFB5DFEBDFA4
:1005A000789480918600882349F00098D89A369AEA
:1005B0003699FECFD898009A109286008895E091DF
:1005C0008700F09188000995ECCF0024552704C0DE
:1005D000080E591F880F991F009729F07695679587
:1005E000B8F37105B9F7802D952F089597FB072E65
:1005F00016F4009406D077FD08D081D007FC05D012
:100600003EF4909581959F4F0895709561957F4F29
:100610000895A1E21A2EAA1BBB1BFD010DC0AA1F43
:10062000BB1FEE1FFF1FA217B307E407F50720F05B
:10063000A21BB30BE40BF50B661F771F881F991FD6
:100640001A9469F760957095809590959B01AC011F
:10065000BD01CF01089568940013E894A0E0B0E0D4
:10066000E3E3F3E01DC0EFEFE7F959016A015E2310
:10067000550FEE08FE2C87019B01AC019E23990FBC
:10068000660B762FCB014FD0CDB7DEB7EAE024C0A2
:100690002F923F924F925F926F927F928F929F9292
:1006A000AF92BF92CF92DF92EF92FF920F931F9380
:1006B000CF93DF93CDB7DEB7CA1BDB0B0FB6F89431
:1006C000DEBF0FBECDBF09942A88398848885F8471
:1006D0006E847D848C849B84AA84B984C884DF80E2
:1006E000EE80FD800C811B81AA81B981CE0FD11DC6
:1006F0000FB6F894DEBF0FBECDBFED010895AA1B63
:10070000BB1B51E107C0AA1FBB1FA617B70710F0FC
:10071000A61BB70B881F991F5A95A9F7809590952E
:10072000BC01CD010895DF93CF939F92A0E49A2E50
:100730000024D001E001F00116950795F794E794A5
:10074000D794C794B794A79448F41068A20FB31F26
:10075000C41FD51FE61FF71F081E191E220F331FC7
:10076000441F551F661F771F881F991F9A9421F7F2
:100770009D01AE01BF01C00111249F90CF91DF9177
:060780000895F894FFCF7C
:1007860001F0F05046000000FF0100010000FFFFED
:100796000000010001FF003543C52B9D6153B300E6
:00000001FF
