S01C0000416C61726D5F436C6F636B5F4669726D776172652E7372656334
S113000010C028C0D6C226C025C024C023C0B0C298
S113001043C220C01FC01EC01DC01CC01BC01AC0CC
S113002019C011241FBECFEDCDBF10E0A0E6B0E093
S1130030E2EFF7E002C005900D92AA37B107D9F7B5
S113004020E0AAE7B0E001C01D92A338B207E1F7AF
S1130050E5D2CDC3D5CF8F929F92AF92BF92CF926C
S1130060DF92EF92FF92609165007091660080913B
S1130070670090916800B090640020E13EE040E0A9
S113008050E01BD3CA01B9010F2EFCE0CF2ED12CB6
S1130090E12CF12CF02DA70196010FD32B2D30E08C
S11300A040E050E02ED3622F732F842F952FA701A9
S11300B0960103D3211531054105510511F4209111
S11300C064002CBF609165007091660080916700A8
S11300D09091680080906300912CA12CB12C0F2E7C
S11300E0F0E1CF2EFEE0DF2EE12CF12CF02DA70164
S11300F09601E3D29B01AC01C501B40102D3622F86
S1130100732F842F952FA7019601D7D226BFFF9076
S1130110EF90DF90CF90BF90AF909F908F90089515
S113012085B18E3040F48AEE91E090936200809322
S1130130610050D1089585B1813440F083EE90E0A0
S113014090936200809361003ED0089580917E0078
S1130150883038F0809164008CBF8091630086BF42
S1130160089580917E00873019F41CBE16BE089550
S113017072DF2091800030918100409165005091A0
S113018066006091670070916800C901829592953C
S1130190907F9827807F9827821B930B880F991F45
S11301A0880F991FAA2797FDA095BA2F840F951F32
S11301B0A61FB71F8093650090936600A093670005
S11301C0B0936800089585B1813460F480E090E8CC
S11301D099BD88BD80E990E09093620080936100AE
S11301E09FDF089585B1813860F080E090E899BD83
S11301F088BD89EA91E09093620080936100A9D060
S1130200089580917E00863048F080916400869540
S11302108CBF80916300869586BF089580917E008F
S1130220853039F4809164008CBF8091630086BF6F
S1130230089580917D00882319F08CB781588CBF74
S113024080917C00882319F086B7815886BF8091FD
S11302507D00811105C080917C00811101C0FBDE0D
S113026010927D0010927C0080917B0081116AC005
S113027060916500709166008091670090916800BC
S113028026E030E040E050E018D2672B682B692B61
S113029041F481E080937B009091600089278093F2
S11302A06000609165007091660080916700909194
S11302B068002AE030E040E050E0FFD1672B682B73
S11302C0692B29F480917B008F5F80937B00809160
S11302D0650090916600A0916700B09168008F70EE
S11302E09927AA27BB27892B8A2B8B2B59F480911A
S11302F07B008F5F80937B009091600081E0892771
S11303008093600080917B00823050F088E893E114
S113031099BD88BD81E080937C0080937D00089521
S11303208823B1F088E893E199BD88BD809160008D
S1130330882321F081E080937C00089581E08093FC
S11303407D00089510927B0080E090E899BD88BDFF
S1130350089585B1813840F483EE90E09093620073
S11303608093610030DF089585B1883D40F08CEFC3
S113037091E090936200809361003ED00895809153
S113038064008CBF16BE209164008091800090911F
S11303908100820F911D8F3F910529F024F08FEF8A
S11303A0809364000895209164008091800090916E
S11303B08100820F911D99231CF41092640008950A
S11303C0809180009091810090916400890F8093C6
S11303D06400089585B18E3040F089EA91E09093ED
S11303E0620080936100B5DF089586B7865F86BF9B
S11303F08CB7865F8CBF089585B1883D40F489EA47
S113040091E09093620080936100A3DF08951CBE85
S11304108091630086BF2091630080918000909159
S11304208100820F911D8F3F910529F024F08FEFF9
S113043080936300089520916300809180009091DF
S11304408100820F911D99231CF41092630008957A
S1130450809180009091810090916300890F809336
S11304606300089581EA80BF83B7816083BFBA9A2D
S1130470D79A08958FEF9FE79BBD8ABD8FEF9FE3C7
S113048099BD88BD8FB583608FBD8EB589618EBDE2
S11304908CB185608CB908951F920F920FB60F929C
S11304A011242F938F939F93AF93BF9380916500F3
S11304B090916600A0916700B09168000196A11D1B
S11304C0B11D8093650090936600A0936700B0937C
S11304D068008091650090916600A0916700B091DA
S11304E06800803C984AA105B105A0F4809165009C
S11304F090916600A0916700B09168008054974580
S1130500AF4FBF4F8093650090936600A093670040
S1130510B09368008091650090916600A091670097
S1130520B091680081349A4FA140B105A0F0809148
S1130530650090916600A0916700B0916800805CAE
S1130540984AA109B1098093650090936600A0932D
S11305506700B093680081E080938200BF91AF91FF
S11305609F918F912F910F900FBE0F901F90189510
S11305701F920F920FB60F9211248F9380917E00D9
S1130580882319F081E0809382008F910F900FBE31
S11305900F901F901895389A86B1816886B91C9A75
S11305A0D09A08958BB780618BBF82B38C6082BB75
S11305B008951F920F920FB60F9211242F938F93C9
S11305C09F93EF93FF93E9B3EC70E695E6958091E2
S11305D07A00880F880FE82BEF70E0937A008091FF
S11305E0800090918100F0E0E759FF4F2081820F55
S11305F0911D27FD9A959093810080938000FF912F
S1130600EF919F918F912F910F900FBE0F901F909C
S1130610189585B7806A85BF019A089523DF2ADF7C
S1130620BADFC0DFF6DF78940F2EFAE0FF2EF02D4C
S1130630CFEFDFE300E010E880918200882391F19E
S11306400098D89A369A3699FECF009A25B18091AF
S11306507F0030E0281B3109C901992324F488273D
S11306609927821B930B0597A4F480917E00811136
S11306700AC08091610090916200835E904069F0AD
S113068019BD08BD0AC080917E00815080937E0010
S113069004C0F0927E00D9BDC8BD85B180937F00AF
S11306A01092820010928100109280008895E0914F
S11306B06100F09162000995BFCFA1E21A2EAA1B36
S11306C0BB1BFD010DC0AA1FBB1FEE1FFF1FA217FE
S11306D0B307E407F50720F0A21BB30BE40BF50BFB
S11306E0661F771F881F991F1A9469F76095709584
S11306F0809590959B01AC01BD01CF01089568944C
S11307000013E894A0E0B0E0E7E8F3E01DC0EFEFE9
S1130710E7F959016A015E23550FEE08FE2C8701A3
S11307209B01AC019E23990F660B762FCB0131D030
S1130730CDB7DD27EAE01FC02F923F924F925F9220
S11307406F927F928F929F92AF92BF92CF92DF92DD
S1130750EF92FF920F931F93CF93DF93CDB7CA1BF2
S1130760CDBFDD2709942A88398848885F846E8440
S11307707D848C849B84AA84B984C884DF80EE80C1
S1130780FD800C811B81AA81D981CE0FCDBFCA2FD8
S11307900895DF93CF939F92A0E49A2E0024D00172
S11307A0E001F00116950795F794E794D794C79460
S11307B0B794A79448F41068A20FB31FC41FD51FA1
S11307C0E61FF71F081E191E220F331F441F551F53
S11307D0661F771F881F991F9A9421F79D01AE0108
S11307E0BF01C00111249F90CF91DF910895F89427
S10507F0FFCF35
S11307F2019000F0F05046000000FF0100000000EC
S10D080200000000000000000000E8
S9030000FC
